{
  "abi": [
    {
      "inputs": [
        {
          "internalType": "address",
          "name": "token0_",
          "type": "address"
        },
        {
          "internalType": "address",
          "name": "token1_",
          "type": "address"
        }
      ],
      "stateMutability": "nonpayable",
      "type": "constructor"
    },
    {
      "inputs": [],
      "name": "InsufficientLiquidityBurned",
      "type": "error"
    },
    {
      "inputs": [],
      "name": "InsufficientLiquidityMinted",
      "type": "error"
    },
    {
      "inputs": [],
      "name": "TransferFailed",
      "type": "error"
    },
    {
      "anonymous": false,
      "inputs": [
        {
          "indexed": true,
          "internalType": "address",
          "name": "owner",
          "type": "address"
        },
        {
          "indexed": true,
          "internalType": "address",
          "name": "spender",
          "type": "address"
        },
        {
          "indexed": false,
          "internalType": "uint256",
          "name": "amount",
          "type": "uint256"
        }
      ],
      "name": "Approval",
      "type": "event"
    },
    {
      "anonymous": false,
      "inputs": [
        {
          "indexed": true,
          "internalType": "address",
          "name": "sender",
          "type": "address"
        },
        {
          "indexed": false,
          "internalType": "uint256",
          "name": "amount0",
          "type": "uint256"
        },
        {
          "indexed": false,
          "internalType": "uint256",
          "name": "amount1",
          "type": "uint256"
        }
      ],
      "name": "Burn",
      "type": "event"
    },
    {
      "anonymous": false,
      "inputs": [
        {
          "indexed": true,
          "internalType": "address",
          "name": "sender",
          "type": "address"
        },
        {
          "indexed": false,
          "internalType": "uint256",
          "name": "amount0",
          "type": "uint256"
        },
        {
          "indexed": false,
          "internalType": "uint256",
          "name": "amount1",
          "type": "uint256"
        }
      ],
      "name": "Mint",
      "type": "event"
    },
    {
      "anonymous": false,
      "inputs": [
        {
          "indexed": false,
          "internalType": "uint256",
          "name": "reserve0",
          "type": "uint256"
        },
        {
          "indexed": false,
          "internalType": "uint256",
          "name": "reserve1",
          "type": "uint256"
        }
      ],
      "name": "Sync",
      "type": "event"
    },
    {
      "anonymous": false,
      "inputs": [
        {
          "indexed": true,
          "internalType": "address",
          "name": "from",
          "type": "address"
        },
        {
          "indexed": true,
          "internalType": "address",
          "name": "to",
          "type": "address"
        },
        {
          "indexed": false,
          "internalType": "uint256",
          "name": "amount",
          "type": "uint256"
        }
      ],
      "name": "Transfer",
      "type": "event"
    },
    {
      "inputs": [],
      "name": "DOMAIN_SEPARATOR",
      "outputs": [
        {
          "internalType": "bytes32",
          "name": "",
          "type": "bytes32"
        }
      ],
      "stateMutability": "view",
      "type": "function"
    },
    {
      "inputs": [
        {
          "internalType": "address",
          "name": "",
          "type": "address"
        },
        {
          "internalType": "address",
          "name": "",
          "type": "address"
        }
      ],
      "name": "allowance",
      "outputs": [
        {
          "internalType": "uint256",
          "name": "",
          "type": "uint256"
        }
      ],
      "stateMutability": "view",
      "type": "function"
    },
    {
      "inputs": [
        {
          "internalType": "address",
          "name": "spender",
          "type": "address"
        },
        {
          "internalType": "uint256",
          "name": "amount",
          "type": "uint256"
        }
      ],
      "name": "approve",
      "outputs": [
        {
          "internalType": "bool",
          "name": "",
          "type": "bool"
        }
      ],
      "stateMutability": "nonpayable",
      "type": "function"
    },
    {
      "inputs": [
        {
          "internalType": "address",
          "name": "",
          "type": "address"
        }
      ],
      "name": "balanceOf",
      "outputs": [
        {
          "internalType": "uint256",
          "name": "",
          "type": "uint256"
        }
      ],
      "stateMutability": "view",
      "type": "function"
    },
    {
      "inputs": [],
      "name": "burn",
      "outputs": [],
      "stateMutability": "nonpayable",
      "type": "function"
    },
    {
      "inputs": [],
      "name": "decimals",
      "outputs": [
        {
          "internalType": "uint8",
          "name": "",
          "type": "uint8"
        }
      ],
      "stateMutability": "view",
      "type": "function"
    },
    {
      "inputs": [],
      "name": "getReserves",
      "outputs": [
        {
          "internalType": "uint112",
          "name": "",
          "type": "uint112"
        },
        {
          "internalType": "uint112",
          "name": "",
          "type": "uint112"
        },
        {
          "internalType": "uint32",
          "name": "",
          "type": "uint32"
        }
      ],
      "stateMutability": "view",
      "type": "function"
    },
    {
      "inputs": [],
      "name": "mint",
      "outputs": [],
      "stateMutability": "nonpayable",
      "type": "function"
    },
    {
      "inputs": [],
      "name": "name",
      "outputs": [
        {
          "internalType": "string",
          "name": "",
          "type": "string"
        }
      ],
      "stateMutability": "view",
      "type": "function"
    },
    {
      "inputs": [
        {
          "internalType": "address",
          "name": "",
          "type": "address"
        }
      ],
      "name": "nonces",
      "outputs": [
        {
          "internalType": "uint256",
          "name": "",
          "type": "uint256"
        }
      ],
      "stateMutability": "view",
      "type": "function"
    },
    {
      "inputs": [
        {
          "internalType": "address",
          "name": "owner",
          "type": "address"
        },
        {
          "internalType": "address",
          "name": "spender",
          "type": "address"
        },
        {
          "internalType": "uint256",
          "name": "value",
          "type": "uint256"
        },
        {
          "internalType": "uint256",
          "name": "deadline",
          "type": "uint256"
        },
        {
          "internalType": "uint8",
          "name": "v",
          "type": "uint8"
        },
        {
          "internalType": "bytes32",
          "name": "r",
          "type": "bytes32"
        },
        {
          "internalType": "bytes32",
          "name": "s",
          "type": "bytes32"
        }
      ],
      "name": "permit",
      "outputs": [],
      "stateMutability": "nonpayable",
      "type": "function"
    },
    {
      "inputs": [],
      "name": "symbol",
      "outputs": [
        {
          "internalType": "string",
          "name": "",
          "type": "string"
        }
      ],
      "stateMutability": "view",
      "type": "function"
    },
    {
      "inputs": [],
      "name": "sync",
      "outputs": [],
      "stateMutability": "nonpayable",
      "type": "function"
    },
    {
      "inputs": [],
      "name": "token0",
      "outputs": [
        {
          "internalType": "address",
          "name": "",
          "type": "address"
        }
      ],
      "stateMutability": "view",
      "type": "function"
    },
    {
      "inputs": [],
      "name": "token1",
      "outputs": [
        {
          "internalType": "address",
          "name": "",
          "type": "address"
        }
      ],
      "stateMutability": "view",
      "type": "function"
    },
    {
      "inputs": [],
      "name": "totalSupply",
      "outputs": [
        {
          "internalType": "uint256",
          "name": "",
          "type": "uint256"
        }
      ],
      "stateMutability": "view",
      "type": "function"
    },
    {
      "inputs": [
        {
          "internalType": "address",
          "name": "to",
          "type": "address"
        },
        {
          "internalType": "uint256",
          "name": "amount",
          "type": "uint256"
        }
      ],
      "name": "transfer",
      "outputs": [
        {
          "internalType": "bool",
          "name": "",
          "type": "bool"
        }
      ],
      "stateMutability": "nonpayable",
      "type": "function"
    },
    {
      "inputs": [
        {
          "internalType": "address",
          "name": "from",
          "type": "address"
        },
        {
          "internalType": "address",
          "name": "to",
          "type": "address"
        },
        {
          "internalType": "uint256",
          "name": "amount",
          "type": "uint256"
        }
      ],
      "name": "transferFrom",
      "outputs": [
        {
          "internalType": "bool",
          "name": "",
          "type": "bool"
        }
      ],
      "stateMutability": "nonpayable",
      "type": "function"
    }
  ],
  "bytecode": {
    "object": "0x60e06040523480156200001157600080fd5b506040516200183138038062001831833981016040819052620000349162000252565b604080518082018252600c81526b2a32b2323cab19102830b4b960a11b6020808301918252835180850190945260078452662a22a2222cab1960c91b9084015281519192916012916200008b91600091906200018f565b508151620000a19060019060208501906200018f565b5060ff81166080524660a052620000b7620000f3565b60c0525050600680546001600160a01b039485166001600160a01b03199182161790915560078054939094169216919091179091555062000369565b60007f8b73c3c69bb8fe3d512ecc4cf759cc79239f7b179b0ffacaa9a75d522b39400f6000604051620001279190620002c6565b6040805191829003822060208301939093528101919091527fc89efdaa54c0f20c7adf612882df0950f5a951637e0307cdcb4c672f298b8bc660608201524660808201523060a082015260c00160405160208183030381529060405280519060200120905090565b8280546200019d906200028a565b90600052602060002090601f016020900481019282620001c157600085556200020c565b82601f10620001dc57805160ff19168380011785556200020c565b828001600101855582156200020c579182015b828111156200020c578251825591602001919060010190620001ef565b506200021a9291506200021e565b5090565b5b808211156200021a57600081556001016200021f565b80516001600160a01b03811681146200024d57600080fd5b919050565b600080604083850312156200026657600080fd5b620002718362000235565b9150620002816020840162000235565b90509250929050565b600181811c908216806200029f57607f821691505b602082108103620002c057634e487b7160e01b600052602260045260246000fd5b50919050565b600080835481600182811c915080831680620002e357607f831692505b602080841082036200030357634e487b7160e01b86526022600452602486fd5b8180156200031a57600181146200032c576200035b565b60ff198616895284890196506200035b565b60008a81526020902060005b86811015620003535781548b82015290850190830162000338565b505084890196505b509498975050505050505050565b60805160a05160c05161149862000399600039600061073b01526000610706015260006101f201526114986000f3fe608060405234801561001057600080fd5b50600436106101165760003560e01c806344df8e70116100a2578063a9059cbb11610071578063a9059cbb1461027e578063d21220a714610291578063d505accf146102a4578063dd62ed3e146102b7578063fff6cae9146102e257600080fd5b806344df8e701461022e57806370a08231146102365780637ecebe001461025657806395d89b411461027657600080fd5b80631249c58b116100e95780631249c58b146101b957806318160ddd146101c357806323b872dd146101da578063313ce567146101ed5780633644e5151461022657600080fd5b806306fdde031461011b5780630902f1ac14610139578063095ea7b31461016b5780630dfe16811461018e575b600080fd5b6101236102ea565b6040516101309190611125565b60405180910390f35b600854604080516001600160701b038084168252600160701b9093049092166020830152600090820152606001610130565b61017e61017936600461116f565b610378565b6040519015158152602001610130565b6006546101a1906001600160a01b031681565b6040516001600160a01b039091168152602001610130565b6101c16103e4565b005b6101cc60025481565b604051908152602001610130565b61017e6101e8366004611199565b610622565b6102147f000000000000000000000000000000000000000000000000000000000000000081565b60405160ff9091168152602001610130565b6101cc610702565b6101c161075d565b6101cc6102443660046111d5565b60036020526000908152604090205481565b6101cc6102643660046111d5565b60056020526000908152604090205481565b610123610a16565b61017e61028c36600461116f565b610a23565b6007546101a1906001600160a01b031681565b6101c16102b23660046111f0565b610a89565b6101cc6102c5366004611263565b600460209081526000928352604080842090915290825290205481565b6101c1610cd2565b600080546102f790611296565b80601f016020809104026020016040519081016040528092919081815260200182805461032390611296565b80156103705780601f1061034557610100808354040283529160200191610370565b820191906000526020600020905b81548152906001019060200180831161035357829003601f168201915b505050505081565b3360008181526004602090815260408083206001600160a01b038716808552925280832085905551919290917f8c5be1e5ebec7d5bd14f71427d1e84f3dd0314c0f7b2291e5b200ac8c7c3b925906103d39086815260200190565b60405180910390a350600192915050565b60085460009081906001600160701b0380821691600160701b9004166006546040516370a0823160e01b81523060048201529294509092506000916001600160a01b03909116906370a08231906024016020604051808303816000875af1158015610453573d6000803e3d6000fd5b505050506040513d601f19601f8201168201806040525081019061047791906112ca565b6007546040516370a0823160e01b81523060048201529192506000916001600160a01b03909116906370a08231906024016020604051808303816000875af11580156104c7573d6000803e3d6000fd5b505050506040513d601f19601f820116820180604052508101906104eb91906112ca565b905060006105026001600160701b038616846112f9565b905060006105196001600160701b038616846112f9565b9050600060025460000361055a576103e861053c6105378486611310565b610db7565b61054691906112f9565b905061055560006103e8610e27565b6105a9565b6105a6876001600160701b0316600254856105759190611310565b61057f919061132f565b876001600160701b0316600254856105979190611310565b6105a1919061132f565b610e81565b90505b600081116105ca57604051633489be7560e21b815260040160405180910390fd5b6105d43382610e27565b6105de8585610e99565b604080518481526020810184905233917f4c209b5fc8ad50758f13e2e1088ba56a560dff690a1c6fef26394f4c03821c4f910160405180910390a250505050505050565b6001600160a01b0383166000908152600460209081526040808320338452909152812054600019811461067e5761065983826112f9565b6001600160a01b03861660009081526004602090815260408083203384529091529020555b6001600160a01b038516600090815260036020526040812080548592906106a69084906112f9565b90915550506001600160a01b0380851660008181526003602052604090819020805487019055519091871690600080516020611443833981519152906106ef9087815260200190565b60405180910390a3506001949350505050565b60007f0000000000000000000000000000000000000000000000000000000000000000461461073857610733610f0a565b905090565b507f000000000000000000000000000000000000000000000000000000000000000090565b6006546040516370a0823160e01b81523060048201526000916001600160a01b0316906370a08231906024016020604051808303816000875af11580156107a8573d6000803e3d6000fd5b505050506040513d601f19601f820116820180604052508101906107cc91906112ca565b6007546040516370a0823160e01b81523060048201529192506000916001600160a01b03909116906370a08231906024016020604051808303816000875af115801561081c573d6000803e3d6000fd5b505050506040513d601f19601f8201168201806040525081019061084091906112ca565b33600090815260036020526040812054600254929350916108618584611310565b61086b919061132f565b90506000600254848461087e9190611310565b610888919061132f565b9050811580610895575080155b156108b35760405163749383ad60e01b815260040160405180910390fd5b6108bd3384610fa4565b6006546108d4906001600160a01b03163384611006565b6007546108eb906001600160a01b03163383611006565b6006546040516370a0823160e01b81523060048201526001600160a01b03909116906370a08231906024016020604051808303816000875af1158015610935573d6000803e3d6000fd5b505050506040513d601f19601f8201168201806040525081019061095991906112ca565b6007546040516370a0823160e01b81523060048201529196506001600160a01b0316906370a08231906024016020604051808303816000875af11580156109a4573d6000803e3d6000fd5b505050506040513d601f19601f820116820180604052508101906109c891906112ca565b93506109d48585610e99565b604080518381526020810183905233917f49995e5dd6158cf69ad3e9777c46755a1a826a446c6416992167462dad033b2a910160405180910390a25050505050565b600180546102f790611296565b33600090815260036020526040812080548391908390610a449084906112f9565b90915550506001600160a01b03831660008181526003602052604090819020805485019055513390600080516020611443833981519152906103d39086815260200190565b42841015610ade5760405162461bcd60e51b815260206004820152601760248201527f5045524d49545f444541444c494e455f4558504952454400000000000000000060448201526064015b60405180910390fd5b60006001610aea610702565b6001600160a01b038a811660008181526005602090815260409182902080546001810190915582517f6e71edae12b1b97f4d1f60370fef10105fa2faae0126114a169c64845d6126c98184015280840194909452938d166060840152608083018c905260a083019390935260c08083018b90528151808403909101815260e08301909152805192019190912061190160f01b6101008301526101028201929092526101228101919091526101420160408051601f198184030181528282528051602091820120600084529083018083525260ff871690820152606081018590526080810184905260a0016020604051602081039080840390855afa158015610bf6573d6000803e3d6000fd5b5050604051601f1901519150506001600160a01b03811615801590610c2c5750876001600160a01b0316816001600160a01b0316145b610c695760405162461bcd60e51b815260206004820152600e60248201526d24a72b20a624a22fa9a4a3a722a960911b6044820152606401610ad5565b6001600160a01b0390811660009081526004602090815260408083208a8516808552908352928190208990555188815291928a16917f8c5be1e5ebec7d5bd14f71427d1e84f3dd0314c0f7b2291e5b200ac8c7c3b925910160405180910390a350505050505050565b6006546040516370a0823160e01b8152306004820152610db5916001600160a01b0316906370a08231906024016020604051808303816000875af1158015610d1e573d6000803e3d6000fd5b505050506040513d601f19601f82011682018060405250810190610d4291906112ca565b6007546040516370a0823160e01b81523060048201526001600160a01b03909116906370a08231906024016020604051808303816000875af1158015610d8c573d6000803e3d6000fd5b505050506040513d601f19601f82011682018060405250810190610db091906112ca565b610e99565b565b60006003821115610e185750806000610dd160028361132f565b610ddc906001611351565b90505b81811015610e1257905080600281610df7818661132f565b610e019190611351565b610e0b919061132f565b9050610ddf565b50919050565b8115610e22575060015b919050565b8060026000828254610e399190611351565b90915550506001600160a01b03821660008181526003602090815260408083208054860190555184815260008051602061144383398151915291015b60405180910390a35050565b6000818310610e905781610e92565b825b9392505050565b600880546001600160701b03838116600160701b9081026001600160e01b0319909316868316179290921792839055604080518483168152929093041660208201527fcf2aa50876cdfbb541206f89af0ee78d44a2abf8d328e37fa4917f982149848a910160405180910390a15050565b60007f8b73c3c69bb8fe3d512ecc4cf759cc79239f7b179b0ffacaa9a75d522b39400f6000604051610f3c9190611369565b6040805191829003822060208301939093528101919091527fc89efdaa54c0f20c7adf612882df0950f5a951637e0307cdcb4c672f298b8bc660608201524660808201523060a082015260c00160405160208183030381529060405280519060200120905090565b6001600160a01b03821660009081526003602052604081208054839290610fcc9084906112f9565b90915550506002805482900390556040518181526000906001600160a01b0384169060008051602061144383398151915290602001610e75565b6040516001600160a01b03838116602483015260448201839052600091829186169060640160408051601f198184030181529181526020820180516001600160e01b031663a9059cbb60e01b179052516110609190611404565b6000604051808303816000865af19150503d806000811461109d576040519150601f19603f3d011682016040523d82523d6000602084013e6110a2565b606091505b50915091508115806110d057508051158015906110d05750808060200190518101906110ce9190611420565b155b156110ee576040516312171d8360e31b815260040160405180910390fd5b5050505050565b60005b838110156111105781810151838201526020016110f8565b8381111561111f576000848401525b50505050565b60208152600082518060208401526111448160408501602087016110f5565b601f01601f19169190910160400192915050565b80356001600160a01b0381168114610e2257600080fd5b6000806040838503121561118257600080fd5b61118b83611158565b946020939093013593505050565b6000806000606084860312156111ae57600080fd5b6111b784611158565b92506111c560208501611158565b9150604084013590509250925092565b6000602082840312156111e757600080fd5b610e9282611158565b600080600080600080600060e0888a03121561120b57600080fd5b61121488611158565b965061122260208901611158565b95506040880135945060608801359350608088013560ff8116811461124657600080fd5b9699959850939692959460a0840135945060c09093013592915050565b6000806040838503121561127657600080fd5b61127f83611158565b915061128d60208401611158565b90509250929050565b600181811c908216806112aa57607f821691505b602082108103610e1257634e487b7160e01b600052602260045260246000fd5b6000602082840312156112dc57600080fd5b5051919050565b634e487b7160e01b600052601160045260246000fd5b60008282101561130b5761130b6112e3565b500390565b600081600019048311821515161561132a5761132a6112e3565b500290565b60008261134c57634e487b7160e01b600052601260045260246000fd5b500490565b60008219821115611364576113646112e3565b500190565b600080835481600182811c91508083168061138557607f831692505b602080841082036113a457634e487b7160e01b86526022600452602486fd5b8180156113b857600181146113c9576113f6565b60ff198616895284890196506113f6565b60008a81526020902060005b868110156113ee5781548b8201529085019083016113d5565b505084890196505b509498975050505050505050565b600082516114168184602087016110f5565b9190910192915050565b60006020828403121561143257600080fd5b81518015158114610e9257600080fdfeddf252ad1be2c89b69c2b068fc378daa952ba7f163c4a11628f55a4df523b3efa2646970667358221220edf94d782f2799a9a1b29abaed0ced6d6f53fb18f8f347020a1ea0a0ff73ab6164736f6c634300080d0033",
    "linkReferences": {}
  }
}